:020000040000FA
:100000000C94CC000C94F4000C94F4000C94F400C8
:100010000C94F4000C94F4000C94F4000C94F40090
:100020000C94F4000C94F4000C94B80F0C94650E2E
:100030000C94F4000C94F4000C94F4000C94F40070
:100040000C94F4000C94F4000C94F4000C94F40060
:100050000C94F4000C94F4000C94F4000C94600ADA
:100060000C94F4000C9488090C94BA090C94F400D4
:100070000C94F4000C94F4000C94F4000C94F40030
:100080000C94F4000C94F4000C94F4000C94F40020
:100090000C94F4000C94F4000C94F4000C94F40010
:1000A0000C94F4000C94F4000C94F4000000000292
:1000B00000090F0000030401000C00000408020105
:1000C000104080401020408040800804020101025E
:1000D00010204080108010204040040404040403D9
:1000E00004050202020204030202020206060606D8
:1000F0000606040402020204000000002500280095
:100100002B002E00310000000000240027002A00F0
:100110002D00300012010002EF0201408D0E01ABF4
:100120000001010203014D6564696154656B204C57
:10013000616273004C696E6B497420536D61727417
:1001400020373638382044756F0004030904080B43
:100150000002020200000904000001020200000582
:1001600024001001052401010104240206052406CF
:1001700000010705810310004009040100020A0084
:10018000000007050202400000070583024000004E
:100190005103EA094E119A0311241FBECFEFDAE092
:1001A000DEBFCDBF11E0A0E0B1E0EEE3FBE202C0B4
:1001B00005900D92AE33B107D9F722E0AEE3B1E07E
:1001C00001C01D92A13DB207E1F710E0CBECD0E0F9
:1001D00004C02197FE010E946014C83CD107C9F7F2
:1001E0000E94450A0C9492150C940000CF93DF9363
:1001F000C2E5D1E0CE010E94840464E6CE010E94F3
:100200001208CE010E940505669681E0C03CD80721
:1002100089F726E040E855E260E070E080EC91E08C
:100220000E942C0961E08DE0DF91CF910C94BF0B0F
:10023000CF92DF92EF92FF920F931F930E94AA0A30
:1002400000914E0110914F012091500130915101C8
:10025000601771078207930740F460934E01709313
:100260004F01809350019093510100914E011091E4
:100270004F0120915001309151016B017C01C01A56
:10028000D10AE20AF30A9701860104361105210515
:10029000310550F160934E0170934F0180935001EE
:1002A0009093510161E08DE00E94FB0B82E591E0AB
:1002B0000E94050588E691E00E9405058EE791E021
:1002C0000E94050584E991E00E9405058AEA91E013
:1002D0000E94050560E08DE01F910F91FF90EF9067
:1002E000DF90CF900C94FB0B1F910F91FF90EF903C
:1002F000DF90CF9008952F923F924F925F926F922E
:100300007F928F929F92AF92BF92CF92DF92EF92A5
:10031000FF920F931F93CF93DF93CDB7DEB72A974A
:100320000FB6F894DEBF0FBECDBF0E94AA0A00919F
:100330003E0110913F012091400130914101601731
:1003400071078207930740F460933E0170933F0169
:10035000809340019093410100913E0110913F0133
:1003600020914001309141016B017C01C01AD10AFA
:10037000E20AF30A970186010436110521053105C9
:1003800008F476C160933E0170933F018093400171
:100390009093410122E531E03A83298320ECE22E5B
:1003A00021E0F22E40914A0150914B0160914C01A5
:1003B00070914D0108E410E030E020E089819A81DD
:1003C0000E94DB0749815A814A5E5F4F5A83498305
:1003D000E416F50639F7C0904601D0904701DA825D
:1003E000C982A981BA812D903C901197E091480172
:1003F000F0914901208131812216330609F438C178
:10040000F1016385C284CB82C61688F48485958504
:100410002817390721F4B0934901A0934801A98115
:10042000BA818D939C93C1010E945E0ADACF70E07D
:1004300090E080E00E9412136B017C01BB816B2F66
:1004400070E090E080E00E9410139B01AC01C701B6
:10045000B6010E9468126B017C01F101F0812F2F1F
:1004600030E03C832B83D10115966C9170E0621BC8
:10047000730B072E000C880B990B0E941213A70117
:1004800096010E949E134B015C01EB81FC81BF0130
:10049000FF0F880B990B0E9412139B01AC01C50141
:1004A000B4010E94FC110E94DA124B016530710503
:1004B00008F0CEC0D1011196BC91EB2FF0E0FC8387
:1004C000EB83D10116966C9170E06E1B7F0B072EAB
:1004D000000C880B990B0E941213A70196010E9431
:1004E0009E132B013C01EB81FC81BF01FF0F880BA8
:1004F000990B0E9412139B01AC01C301B2010E942F
:10050000FC110E94DA129B0177FDA2C0220F331F5B
:10051000A901460F571F5E834D83483451050CF0E7
:1005200097C0D1011296BC91EB2FF0E0F887EF83D2
:10053000D10113960C91139710E014966C911497B7
:10054000E62FF0E0FC83EB8317966C9170E02F812F
:100550003885621B730B072E000C880B990B0E94C9
:100560001213A70196010E949E132B013C014F819B
:100570005885BA01550F880B990B0E9412139B01E5
:10058000AC01C301B2010E94FC110E94DA12462E96
:10059000512C712C612C320155244424D101189620
:1005A0006C9170E0601B710B072E000C880B990B8F
:1005B0000E941213A70196010E949E136F837887F1
:1005C00089879A87B801110F880B990B0E94121323
:1005D0009B01AC016F81788589859A850E94FC1109
:1005E0000E94DA12562AF101618570E02B813C816C
:1005F000621B730B072E000C880B990B0E941213C1
:10060000A70196010E949E136B017C014B815C81C6
:10061000BA01550F880B990B0E9412139B01AC0174
:10062000C701B6010E94FC110E94DA12C201862B9A
:10063000AC01B301A6E1A89DC001A99D900D1124B4
:1006400003E010E02D813E818E5A9E4F0E94DB0711
:10065000F10183858F5F8387A981BA818D919C91F8
:10066000009709F4BECEFC013C96FA83E983B9CE2B
:100670002A960FB6F894DEBF0FBECDBFDF91CF91A3
:100680001F910F91FF90EF90DF90CF90BF90AF90B0
:100690009F908F907F906F905F904F903F902F90A2
:1006A000089522E530E048E050E068E470E082E53B
:1006B00091E00E944D0722E530E049E050E068E417
:1006C00070E088E691E00E944D0722E530E04AE0C4
:1006D00050E068E470E08EE791E00E944D0722E56B
:1006E00030E04BE050E068E470E084E991E00E9483
:1006F0004D0722E530E04CE050E068E470E08AEA23
:1007000091E00E944D0783E093E0A0E0B0E0809389
:100710004A0190934B01A0934C01B0934D01E2E448
:10072000F1E011821082F383E283F583E483F7839F
:10073000E68308958AEA91E00E94710484E991E0D9
:100740000E9471048EE791E00E94710488E691E0B6
:100750000E94710482E591E00C9471047F928F9263
:100760009F92AF92BF92CF92DF92EF92FF920F9340
:100770001F93CF93DF93CDB7DEB7A2970FB6F89450
:10078000DEBF0FBECDBF0E947B010E94180180EC2E
:1007900091E00E945408181619060CF08EC08E01C4
:1007A0000F5F1F4F6E0147E1C40ED11C80EC91E03A
:1007B0000E945408181619060CF07FC080EC91E0D6
:1007C0000E946E08F801819391938F0134E1E32E2A
:1007D000F12C80EC91E00E945408892B09F447C069
:1007E000C016D10619F71AA219A2E980DB80FD8094
:1007F0001F810985CB84BD84AF8499888B887D88CF
:10080000772009F43EC08EE090E00E94580AEF8AFB
:10081000D88EF98E1A8F0B8FCC8EBD8EAE8E9F8E9A
:1008200088A279A22CE0FE017796DC0101900D925E
:100830002A95E1F72091420130914301FC0135876F
:100840002487009709F439C020914801309149016B
:100850002254314039F49C01245F3F4F30934901C9
:1008600020934801909343018093420126C084E67F
:1008700090E00E94140BF1E0EF1AF10809F0A9CF03
:10088000AFCFEC10C0CFDB10BECFFA10BCCF191128
:10089000BACF0811B8CF812F90E0B0E0A0E0BA2F16
:1008A000A92F982F8827AF29802B80934A019093F6
:1008B0004B01A0934C01B0934D01A2960FB6F89452
:1008C000DEBF0FBECDBFDF91CF911F910F91FF9083
:1008D000EF90DF90CF90BF90AF909F908F907F90E0
:1008E0000895CF93DF93EC0189859A850E940215C4
:1008F0008E819F8197FD05C060E0DF91CF910C94C0
:10090000BF0BDF91CF910895CF93DF93EC018E81E0
:100910009F8197FD07C061E00E94BF0B60E08E8160
:100920000E94FB0B81E08983DF91CF910895EF92C4
:10093000FF920F931F93CF93DF93EC017B01898587
:100940009A850E9402159E858B85981701F184E097
:1009500090E08E9D80018F9D100D9E9D100D1124A5
:100960001D830C83C8010E9466149A8789870097AB
:1009700089F0A80170E060E00E948B15FB82EA829A
:10098000DF91CF911F910F91FF90EF90089583E039
:1009900090E0DFCF1D821C821B821A82F1CFFC0106
:1009A000B685A3859B0186E0369527958A95E1F764
:1009B00023702687CB0134E0969587953A95E1F729
:1009C00083708387AB01569547955695479543703D
:1009D0004487962F9370958791E06F3F710511F0D2
:1009E00008F090E0908341855285452B69F031E015
:1009F000BA1330E091E0281390E0391729F06281B2
:100A00007381CF010C9497040895CF92DF92EF92F7
:100A1000FF920F931F93CF93DF93CDB7DEB7299744
:100A20000FB6F894DEBF0FBECDBF8C01DC01199666
:100A30008D919C91892B09F4A5C00E94B60AF801FA
:100A4000C784D088E188F2886C157D058E059F05E6
:100A500020F46787708B818B928BF801C784D088D4
:100A6000E188F2886C197D098E099F096C3271400A
:100A70008105910510F3F894D80114968D919C91FD
:100A800015979A83898319960D90BC91A02D7D01AD
:100A9000EFEFEE1AFE0A8C918987D8018C9153965C
:100AA0000D90BC91A02D882309F491C11D82AB3219
:100AB000B10509F076C09BB1F8018589982B98871C
:100AC0009BB1809589238F838F818E83898587FF52
:100AD00002C088858E8358856F8149853E812D812E
:100AE00089819A81D7015BB9262F3BB900C046FDA9
:100AF000252F6BB900C05BB9362F2BB900C045FD5F
:100B0000352F6BB900C05BB9262F3BB900C044FD3F
:100B1000252F6BB900C05BB9362F2BB900C043FD40
:100B2000352F6BB900C05BB9262F3BB900C042FD21
:100B3000252F6BB900C05BB9362F2BB900C041FD22
:100B4000352F6BB900C05BB9262F3BB900C040FD03
:100B5000252F6BB901975BB9362F2BB94D9147FD06
:100B6000352F6BB901F649873E832D839A8389839C
:100B700078940E94B60AD8011F966D937D938D9349
:100B80009C93529729960FB6F894DEBF0FBECDBF47
:100B9000DF91CF911F910F91FF90EF90DF90CF9059
:100BA0000895A532B10509F059C095B1F8018589BC
:100BB000982B988795B1809589238F838F818E8319
:100BC000898587FF02C088858E8358856F81498516
:100BD0003E812D8189819A81D70155B9262F35B95A
:100BE00000C046FD252F65B900C055B9362F25B97F
:100BF00000C045FD352F65B900C055B9262F35B960
:100C000000C044FD252F65B900C055B9362F25B960
:100C100000C043FD352F65B900C055B9262F35B941
:100C200000C042FD252F65B900C055B9362F25B942
:100C300000C041FD352F65B900C055B9262F35B923
:100C400000C040FD252F65B9019755B9362F25B94C
:100C50004D9147FD352F65B901F685CFA832B10515
:100C600009F059C098B1F8018589982B988798B1F7
:100C7000809589238F838F818E83898587FF02C02A
:100C800088858E8358856F8149853E812D81898134
:100C90009A81D70158B9262F38B900C046FD252FB3
:100CA00068B900C058B9362F28B900C045FD352FA6
:100CB00068B900C058B9262F38B900C044FD252FA7
:100CC00068B900C058B9362F28B900C043FD352F88
:100CD00068B900C058B9262F38B900C042FD252F89
:100CE00068B900C058B9362F28B900C041FD352F6A
:100CF00068B900C058B9262F38B900C040FD252F6B
:100D000068B9019758B9362F28B94D9147FD352F4D
:100D100068B901F628CFD19709F02ACF91B3F8012D
:100D20008589982B988791B3809589238F838F81AC
:100D30008E83898587FF02C088858E8358856F8161
:100D400049853E812D8189819A81D70151BB262F0A
:100D500031BB00C046FD252F61BB00C051BB362F03
:100D600021BB00C045FD352F61BB00C051BB262F04
:100D700031BB00C044FD252F61BB00C051BB362FE5
:100D800021BB00C043FD352F61BB00C051BB262FE6
:100D900031BB00C042FD252F61BB00C051BB362FC7
:100DA00021BB00C041FD352F61BB00C051BB262FC8
:100DB00031BB00C040FD252F61BB019751BB362FD1
:100DC00021BB4D9147FD352F61BB01F6CCCE9C91E7
:100DD000F8018589982B98879C91809589238F832A
:100DE0008F818C8388E08B8358856F8149853B8117
:100DF0002C8189819A81F7015C9347FD252F2C93E3
:100E0000262F3A9531F0441F6C9300C000C000C0FB
:100E1000F3CF6C93000038E04191019769F7F80136
:100E2000B48BA38B49873B832C83A0CE0F931F9356
:100E3000CF93DF93EC01162F072F8981882339F098
:100E40008E819F8197FD03C060E00E94BF0B1E83CF
:100E50000F838981882341F061E0812F0E94BF0BBD
:100E600060E0812F0E94FB0B812F902FFC01E65246
:100E7000FF4FE491F0E0EE0FFF1FE850FF4F259188
:100E800034913C8B2B8BFC01E454FF4FE491ED8BB0
:100E9000DF91CF911F910F910895EF92FF920F93E1
:100EA0001F93CF93DF93EC017B018A01198218868F
:100EB0001A8619861F86188A198A1A8AB9010E9409
:100EC000CF04B701CE010E949704B801CE01DF9193
:100ED000CF911F910F91FF90EF900C9416078F9276
:100EE0009F92AF92BF92CF92DF92EF92FF921F93A9
:100EF000CF93DF93FC018281938168177907A8F56E
:100F00004A01AA24BB24C82DC32ED42EE52EFF24CB
:100F10001C2DD22F8085882361F0889E40011124EA
:100F2000C92D8C9D600111241D2D829FD00111249B
:100F3000DB2FA685E184F2849385A91322C0CB011F
:100F4000880F991F680F791F6E0D7F1DA385A60F4F
:100F5000B72FB11DCC93A485A60FB72FB11D1C933D
:100F60008585680F711DFB01D083DF91CF911F91A3
:100F7000FF90EF90DF90CF90BF90AF909F908F90B9
:100F80000895660F771F660F771F6E0D7F1D252F43
:100F9000332744275527882349F090E0829F70012A
:100FA000839FF00C929FF00C11242F2DA60FB72FCA
:100FB000B11D2C93CBCF8F929F92AF92BF92CF92C5
:100FC000DF92EF92FF920F931F93CF93DF936C0109
:100FD0004A015B01E901FC01E280F3802E153F0527
:100FE000A0F40115110531F0020F131F0E151F0596
:100FF00008F47801CE15DF0540F4A5019401BE0187
:10100000C6010E946F072196F5CFDF91CF911F9106
:101010000F91FF90EF90DF90CF90BF90AF909F9097
:101020008F900895FF920F931F93CF93DF93EC015E
:10103000FF24F394F60E28852F1581F109851A8572
:10104000215041F16F3FE1F430E050E040E06FEFBC
:101050007FEF80E090E00E944114B901F8014C81DB
:101060005D81CF01801B910B84179507B0F44081FF
:10107000469FC001479F900D112490833196EFCF7A
:101080008F2D90E0982F88270197622F70E00E94A3
:101090000B14E4CF70E060E0E1CFF886DF91CF91F0
:1010A0001F910F91FF900895FC01918D228D892F42
:1010B00090E0805C9F4F821B91098F739927089560
:1010C000FC01918D828D981731F0828DE80FF11D12
:1010D000858D90E008958FEF9FEF0895FC01918D2D
:1010E000828D981761F0A28DAE0FBF2FB11D5D9656
:1010F0008C91928D9F5F9F73928F90E008958FEFF8
:101100009FEF0895FC01538D448D252F30E0842FEF
:1011100090E0821B930B541710F0CF96089501971F
:10112000089580EE99E0892B49F080E090E0892BCA
:1011300029F00E94E00981110C9400000895FC013F
:10114000A48DA80FB92FB11DA35ABF4F2C91848D28
:1011500090E001968F739927848FA689B7892C9385
:10116000A089B1898C9182748C93938D848D98130E
:1011700006C00288F389E02D80818F7D80830895E9
:10118000CF93DF93EC01888D8823B9F0AA89BB89BE
:10119000E889F9898C9185FD03C0808186FD0DC0A9
:1011A0000FB607FCF7CF8C9185FFF2CF808185FFCA
:1011B000EDCFCE010E949F08E9CFDF91CF91089536
:1011C000EF92FF920F931F93CF93DF93EC0181E097
:1011D000888F9B8D8C8D981319C0E889F98980813F
:1011E00085FF14C09FB7F894EE89FF896083E88972
:1011F000F9898081827480839FBF81E090E0DF91D4
:10120000CF911F910F91FF90EF900895F62E0B8DC7
:1012100010E00F5F1F4F0F731127E02E8C8D8E1182
:101220000CC00FB607FCFACFE889F989808185FFE9
:10123000F5CFCE010E949F08F1CFEB8DEC0FFD2F73
:10124000F11DE35AFF4FF0829FB7F8940B8FEA89A4
:10125000FB8980818062CFCFCF92DF92EF92FF92A5
:101260001F93CF93DF93EC016A017B01122F60E89B
:1012700074E88EE190E0A70196010E941F142150AE
:101280003109410951095695479537952795E889C0
:10129000F98982E08083211580E1380798F0E88998
:1012A000F989108260E472E48FE090E0A701960172
:1012B0000E941F1421503109410951095695479543
:1012C00037952795EC85FD853083EE85FF85208356
:1012D000188EEC89FD891083EA89FB898081806101
:1012E0008083EA89FB89808188608083EA89FB8921
:1012F000808180688083EA89FB8980818F7D8083FB
:10130000DF91CF911F91FF90EF90DF90CF900895E4
:101310001F920F920FB60F9211242F938F939F93CA
:10132000EF93FF93E091D001F091D1018081E091A2
:10133000D601F091D70182FD1BC090818091D90127
:101340008F5F8F732091DA01821741F0E091D9010C
:10135000F0E0E054FE4F958F8093D901FF91EF911B
:101360009F918F912F910F900FBE0F901F90189506
:101370008081F4CF1F920F920FB60F9211242F93FA
:101380003F934F935F936F937F938F939F93AF930D
:10139000BF93EF93FF9380EC91E00E949F08FF9131
:1013A000EF91BF91AF919F918F917F916F915F91DD
:1013B0004F913F912F910F900FBE0F901F90189556
:1013C00080EC91E00E94540821E0892B09F420E090
:1013D000822F0895E0ECF1E01382128288EE93E010
:1013E000A0E0B0E084839583A683B7838DE191E08C
:1013F000918380838DEC90E0958784878CEC90E0DE
:101400009787868788EC90E0918B808B89EC90E0C1
:10141000938B828B8AEC90E0958B848B8EEC90E0A2
:10142000978B868B118E128E138E148E0895AF9229
:10143000BF92CF92DF92EF92FF920F931F93CF93C1
:10144000DF936C017B018B01040F151FEB015E0123
:10145000AE18BF08C017D10759F06991D601ED91B8
:10146000FC910190F081E02DC6010995892B79F757
:10147000C501DF91CF911F910F91FF90EF90DF9009
:10148000CF90BF90AF90089508950E941D0B0E94C9
:10149000440A86E692E00E9436100E94F600C1E9F6
:1014A000D8E00E94AE032097E1F30E949108F9CFA3
:1014B000009711F481E090E00C9466140C940215EE
:1014C0001F920F920FB60F9211242F933F938F9379
:1014D0009F93AF93BF9380915E0290915F02A09122
:1014E0006002B091610230915D0226E0230F2D373A
:1014F00058F50296A11DB11D20935D0280935E02F6
:1015000090935F02A0936002B093610280916202A7
:1015100090916302A0916402B09165020196A11DB1
:10152000B11D8093620290936302A0936402B09312
:101530006502BF91AF919F918F913F912F910F9035
:101540000FBE0F901F90189529E8230F0396A11D39
:10155000B11DD2CF2FB7F89460915E0270915F02F7
:1015600080916002909161022FBF08953FB7F89477
:101570008091620290916302A0916402B091650231
:1015800026B5A89B05C02F3F19F00196A11DB11DDE
:101590003FBFBA2FA92F982F8827BC01CD01620F1A
:1015A000711D811D911D43E0660F771F881F991FD4
:1015B0004A95D1F708958F929F92AF92BF92CF92A2
:1015C000DF92EF92FF926B017C010E94B60A4B0101
:1015D0005C01C114D104E104F104E9F00E94491056
:1015E0000E94B60A681979098A099B09683E734006
:1015F0008105910570F321E0C21AD108E108F108D4
:1016000088EE880E83E0981EA11CB11CC114D10481
:10161000E104F10429F7FF90EF90DF90CF90BF90A5
:10162000AF909F908F9008958330910528F0880F98
:10163000991F04970197F1F70895789484B5826013
:1016400084BD84B5816084BD85B5826085BD85B566
:10165000816085BDEEE6F0E0808181608083E1E815
:10166000F0E010828081826080838081816080834D
:10167000E0E8F0E0808181608083E1E9F0E0808152
:1016800082608083808181608083E0E9F0E08081F6
:1016900081608083E1ECF0E08081846080838081E0
:1016A00082608083808181608083E3ECF0E08081D0
:1016B00081608083E0ECF0E0808182608083E2ECF6
:1016C000F0E0808181608083EAE7F0E080818460DF
:1016D000808380818260808380818E7F808380810F
:1016E00080688083089581508F3008F047C0E82FCC
:1016F000F0E0E358F44F0C9460149A0B9E0B8C0BA3
:10170000920B960BBE0BBE0BBE0BA10BA70BAB0B2C
:10171000AF0BB50BBE0BB90B809180008F77809318
:1017200080000895809180008F7DF9CF80918000A6
:10173000877FF5CF84B58F7784BD089584B58F7D7D
:10174000FBCF809190008F778093900008958091D7
:1017500090008F7DF9CF80919000877FF5CF8091A9
:10176000C0008F778093C00008958091C0008F7D66
:10177000F9CF8091C200877F8093C2000895CF93F4
:10178000DF9390E0FC01E454FF4F249186529F4F79
:10179000FC0184918823C9F090E0880F991FFC0117
:1017A000EA5FFE4FA591B491FC01E850FF4FC5914F
:1017B000D49161110DC09FB7F8948C91209582232C
:1017C0008C938881282328839FBFDF91CF91089530
:1017D000623051F49FB7F8943C91822F8095832317
:1017E0008C93E8812E2BEFCF8FB7F894EC912E2BB2
:1017F0002C938FBFEACF1F93CF93DF93282F30E036
:10180000F901E455FF4F8491F901E454FF4FD4915D
:10181000F901E652FF4FC491CC23A9F0162F811194
:101820000E94730BEC2FF0E0EE0FFF1FE850FF4F0C
:10183000A591B4918FB7F894EC91111108C0D0958F
:10184000DE23DC938FBFDF91CF911F910895DE2BB4
:10185000F8CF615030F02091F100FC012083019617
:10186000F8CF289884E680936E020895409169022B
:1018700050916A0220916702309168024217530723
:10188000B4F49091E8009570E1F39091E80092FD36
:1018900019C08093F1008091690290916A020196CB
:1018A0008F739927892B19F48EEF8093E80080912C
:1018B000690290916A02019690936A02809369028C
:1018C00081E0089580E00895EF92FF920F931F93B7
:1018D000CF93DF93F82E192FE62E042F81E0860F89
:1018E000880F0E94360C83E00E94360CCF2DD12F3A
:1018F000EC0EFD2EF11CCE15DF05B9F007FF13C06D
:10190000FE0184910E94360C182F80E00E94360C54
:10191000812321968111EFCFDF91CF911F910F91FC
:10192000FF90EF9008958881EDCF81E0F5CF809111
:10193000D70081608093D70080EA8093D80089B572
:101940008F7E89BD89B5826089BD09B400FEFDCF57
:1019500061E070E080E090E00E94DB0A8091D800B6
:101960008F7C80618093D8008091E000807F80939D
:10197000E0000895CF93DF931F92CDB7DEB71982B1
:10198000CE0101960E94B6100E94E711BE016F5F62
:101990007F4F0E94631189810F90DF91CF9108954D
:1019A0002FB7FC012083F89467706093E9000895D5
:1019B000CF93DF931F92CDB7DEB7682FCE0101968C
:1019C0000E94D00C8091F20099819FBF0F90DF910F
:1019D000CF910895EF92FF920F931F93CF93DF93D0
:1019E0001F92CDB7DEB790916D02992379F157FD23
:1019F0002DC08A017B01682FCE0101960E94D00C78
:101A00008091F20090E0081719070CF4C801282F04
:101A1000F70144E6215038F0289840936E02309147
:101A2000F1003193F7CF009739F02091F2002111A6
:101A300003C02BE62093E80029812FBF0F90DF9190
:101A4000CF911F910F91FF90EF9008958FEF9FEF2F
:101A5000F5CFCF93DF931F92CDB7DEB741E050E0D3
:101A6000BE016F5F7F4F0E94EA0C019731F48981BC
:101A700090E00F90DF91CF9108958FEF9FEFF9CF16
:101A8000CF93DF931F92CDB7DEB7682FCE010196BB
:101A90000E94D00C9091E800892F807295FF04C0BD
:101AA0009091F20080E4891B99819FBF0F90DF9194
:101AB000CF9108955F926F927F928F929F92AF9293
:101AC000BF92CF92DF92EF92FF920F931F93CF932B
:101AD000DF931F92CDB7DEB7982E6B01B42E052F82
:101AE00080916D02811113C08FEF9FEF0F90DF91F6
:101AF000CF911F910F91FF90EF90DF90CF90BF900B
:101B0000AF909F908F907F906F905F90089580919D
:101B10006B0280FF05C08091E00082608093E0004E
:101B2000EB2CF02EA12C8AEF882E892D8072682E46
:101B3000892D8074582E9AE3792EE114F10419F45A
:101B4000AA2009F457C0892D0E94400D182F811139
:101B50000AC08A94882041F261E070E080E090E061
:101B60000E94DB0AEACF8E151F0411F00CF01E2D27
:101B7000692DCE0101960E94D00C8091E80085FD70
:101B800003C089818FBFD9CF812F90E0E81AF90A6D
:101B9000662029F01150A0F01092F100FBCFF60161
:101BA00097FC0AC0115050F021912093F100FACF18
:101BB00024912093F10031961150D0F7C80ED91E10
:101BC000AA2021F07092E800A12CDBCF8091E800E0
:101BD00085FD08C07092E800AA24A394E114F104E2
:101BE00081F2F2CFE114F10461F6552051F27092C6
:101BF000E800C7CF5D9884E680936F028B2D902F0D
:101C000075CF1092E90010926A02109269029093C7
:101C10006802809367020895DF92EF92FF920F931C
:101C20001F93CF93DF93D82E8A01EB017B01E40E43
:101C3000F51ECE15DF0559F0D7FE12C0FE018491C6
:101C40000E94360C21968111F4CF0FEF1FEFC801CF
:101C5000DF91CF911F910F91FF90EF90DF9008954A
:101C60008881EECFAF92BF92DF92EF92FF920F93F7
:101C70001F93CF93DF935C018B01EB019BEFD92E78
:101C80002097C1F07E01C134D1051CF080E4E82E1C
:101C9000F12C8091E80082FFFCCFC8018C1B9D0BCA
:101CA0006E2D8A0D9B1D0E94290CD092E800CE1942
:101CB000DF09E6CFC801DF91CF911F910F91FF900F
:101CC000EF90DF90BF90AF9008951F920F920FB6E4
:101CD0000F921124EF92FF920F931F932F933F9334
:101CE0004F935F936F937F938F939F93AF93BF9324
:101CF000EF93FF93CF93DF93CDB7DEB76C97DEBF43
:101D0000CDBF1092E9008091E80083FF25C068E014
:101D1000CE0145960E94290C82EF8093E8008D89C0
:101D200087FF37C09091E80090FFFCCF982F907606
:101D300009F000C19E894F89588D2F89188D911106
:101D40002FC0803851F580916C028093F100109281
:101D5000F1008EEF8093E8006C960FB6F894DEBF2A
:101D60000FBECDBFDF91CF91FF91EF91BF91AF91AA
:101D70009F918F917F916F915F914F913F912F91A3
:101D80001F910F91FF90EF900F900FBE0F901F903B
:101D900018959EEF9093E800C9CF1092F100D7CF2D
:101DA000913059F48111D5CF4130510591F6809190
:101DB0006C028D7F80936C02CCCF933049F48111FB
:101DC000C8CF4130510529F680916C028260F2CF74
:101DD000953041F48091E80080FFFCCF206820938B
:101DE000E300B7CF963009F077C0EB8CFC8C123053
:101DF00039F590E080E00E94010E0E94BA0C1F822B
:101E000099E099831A8391E09E8390EA98879AEFEC
:101E100099872091690230916A02275F3F4F3C8386
:101E20002B838D83C7010E94010E49E050E0BE0163
:101E30006F5F7F4F80E00E940C0E0E94BA0C89CF2A
:101E4000C7010E94010E0E94E711BE016B5E7F4F29
:101E50000E948B11009731F00CF07BCF81E28093D0
:101E6000EB007ACF113061F11330C1F78F898823ED
:101E700081F1823049F440E865E184E391E00E9419
:101E8000640C882359F365CF813029F440E86DE074
:101E900086E291E0F4CF833009F70E94E7118E01CA
:101EA0000F5F1F4FB8010E94AA11F8010190002096
:101EB000E9F73197BF01601B710B40E0C801DFCF2C
:101EC00064E171E0FB01449150E080E80E940C0E57
:101ED00040CF6AE471E0F6CF973009F4BFCF983075
:101EE00021F481E08093F10034CF993009F031CFB3
:101EF000837009F0B3CFE7E0F1E081E031E096E3F1
:101F00002191222371F08093E9003093EB00DF01EF
:101F100011972C912093EC009093ED008F5F873008
:101F200079F78EE78093EA001092EA008F89809318
:101F30006D020FCF8B8D9C8D0E94010E898D8111BA
:101F400005C0CE0145960E94C1109BCF0E94E711AB
:101F5000BE016B5E7F4F0E94C91193CF8093E90051
:101F60008091F200882319F08AE38093E8000895B5
:101F70001F920F920FB60F9211242F933F934F93FE
:101F80005F936F937F938F939F93AF93BF93CF9301
:101F9000EF93FF93C091E1008091E100837F8093F4
:101FA000E100C3FF0FC01092E90081E08093EB00D5
:101FB0001092EC0082E38093ED0010926D0288E0B5
:101FC0008093F000C2FF1BC083E00E94AE0F80919F
:101FD0006F02882341F080916F02815080936F02DD
:101FE000811101C05D9A80916E02882341F0809139
:101FF0006E02815080936E02811101C0289AC4FF45
:1020000023C08091E2008E7E81608093E200809107
:10201000E1008F7E8093E10080916B028E7E806173
:1020200080936B02FF91EF91CF91BF91AF919F9100
:102030008F917F916F915F914F913F912F910F9071
:102040000FBE0F901F901895C0FFECCF8091E2005B
:102050008E7E80618093E2008091E1008E7E80938D
:10206000E10080916B028E7E8160DACF10926D026A
:1020700010926C0210926B020E94970CE1EEF0E05D
:1020800080818E7E80838DE08093E200559A209A35
:1020900008950895CF93DF931F92CDB7DEB769837C
:1020A000DC01ED91FC910280F381E02D41E050E0F4
:1020B000BE016F5F7F4F09950F90DF91CF9108951B
:1020C000CF93DF93EC018C859D8597FF05C082E05F
:1020D0000E94290D9D878C878C859D85DF91CF91EE
:1020E000089583E00E94400D90E0089583E00C94F1
:1020F000AE0FFC018485958597FD06C082E00E94A5
:10210000D80C90E00196089582E00E94D80C90E0EF
:102110000895FC018485958597FD05C02FEF3FEF5D
:1021200035872487089582E00C94290DCF93DF939F
:10213000EC0180911801882331F083E00E945A0D50
:102140001816190634F081E090E09B838A8380E0C2
:1021500090E0DF91CF910895EEEFFFE72591349164
:1021600081E02B3F3C4D09F080E00895FC01908117
:102170009E5F908342E450E06EE471E080E80C944E
:102180000C0EFC0181819081913A61F4813209F059
:1021900083C047E050E061E171E080E00E940C0EF6
:1021A00081E00895913209F077C0833269F4828129
:1021B0009381B0E0A0E080930D0190930E01A09375
:1021C0000F01B0931001ECCF803239F467E070E07A
:1021D00081E191E00E94320EE3CF823209F78281E1
:1021E000809318010E94AC10E0E0F8E0882311F021
:1021F000EEEFFAE08091110190911201A09113018C
:10220000B0911401803B9440A105B105D9F48091AF
:10221000180180FD17C0EE3F8AE0F80771F587E7E7
:1022200097E791838083809160008093C00288E16A
:102230009BE00FB6F894A895809360000FBE909332
:102240006000AECF808191818737974709F0A8CF92
:10225000A895809160008861809360008091C002A1
:1022600080936000EE3F8AE0F80789F08091FE0AD3
:102270009091FF0A9183808393CF808191818737EA
:10228000980769F29093FF0A8093FE0AC8CF1092D4
:10229000FF0A1092FE0A84CF80E00895E0E7F2E0A2
:1022A0001382128288EE93E0A0E0B0E084839583ED
:1022B000A683B7838FE291E0918380838FEF9FEFB6
:1022C000958784870895EF92FF920F931F93CF9382
:1022D000DF937B01FC01C281D38110E000E02097F5
:1022E00091F0E881F9810280F381E02DB701CE0100
:1022F000099597FD06C0080F191F0884D985C02DC0
:10230000EECF0FEF1FEFC801DF91CF911F910F911B
:10231000FF90EF9008950F931F93CF93DF938B015E
:10232000FC01C281D381209771F0E881F98104809A
:10233000F581E02DB801CE010995009731F40884AC
:10234000D985C02DF0CF90E080E0DF91CF911F9133
:102350000F9108950F931F93CF93DF938B01FC018F
:10236000C281D381209771F0E881F9810680F781DD
:10237000E02DB801CE010995080F111D0884D985FB
:10238000C02DF0CFF8011082DF91CF911F910F91F6
:1023900008950F931F93CF93DF938B01FC01C281AC
:1023A000D381209771F0E881F9810190F081E02DCF
:1023B000B801CE010995811105C00884D985C02DC9
:1023C000F0CF80E0DF91CF911F910F910895809120
:1023D000C10281110DC082E08093C90284E0809324
:1023E000CA021092CC021092CB0281E08093C1020B
:1023F00089EC92E008955058BB27AA270E94131237
:102400000C9464130E94561338F00E945D1320F060
:1024100039F49F3F19F426F40C9453130EF4E0950D
:10242000E7FB0C944D13E92F0E94751358F3BA176C
:10243000620773078407950720F079F4A6F50C94DA
:1024400097130EF4E0950B2EBA2FA02D0B01B901B6
:1024500090010C01CA01A0011124FF27591B99F01A
:10246000593F50F4503E68F11A16F040A22F232F26
:10247000342F4427585FF3CF469537952795A79576
:10248000F0405395C9F77EF41F16BA0B620B730B1D
:10249000840BBAF09150A1F0FF0FBB1F661F771F8E
:1024A000881FC2F70EC0BA0F621F731F841F48F443
:1024B000879577956795B795F7959E3F08F0B0CFCC
:1024C0009395880F08F09927EE0F979587950895B3
:1024D0000E947C120C9464130E945D1358F00E94B9
:1024E000561340F029F45F3F29F00C944D1351111D
:1024F0000C9498130C9453130E94751368F399234A
:10250000B1F3552391F3951B550BBB27AA276217EF
:102510007307840738F09F5F5F4F220F331F441FFC
:10252000AA1FA9F335D00E2E3AF0E0E832D0915030
:102530005040E695001CCAF72BD0FE2F29D0660F1D
:10254000771F881FBB1F261737074807AB07B0E860
:1025500009F0BB0B802DBF01FF2793585F4F3AF066
:102560009E3F510578F00C944D130C9498135F3FE7
:10257000E4F3983ED4F3869577956795B795F795EC
:102580009F5FC9F7880F911D9695879597F90895D4
:10259000E1E0660F771F881FBB1F62177307840770
:1025A000BA0720F0621B730B840BBA0BEE1F88F77F
:1025B000E09508950E94E1126894B1110C9498136B
:1025C00008950E947D1388F09F5798F0B92F99279E
:1025D000B751B0F0E1F0660F771F881F991F1AF00E
:1025E000BA95C9F714C0B13091F00E949713B1E0C9
:1025F00008950C949713672F782F8827B85F39F0C8
:10260000B93FCCF3869577956795B395D9F73EF4A6
:1026100090958095709561957F4F8F4F9F4F08954E
:10262000E89409C097FB3EF490958095709561956C
:102630007F4F8F4F9F4F9923A9F0F92F96E9BB2722
:102640009395F695879577956795B795F111F8CF9E
:10265000FAF4BB0F11F460FF1BC06F5F7F4F8F4F09
:102660009F4F16C0882311F096E911C0772321F0FF
:102670009EE8872F762F05C0662371F096E8862F97
:1026800070E060E02AF09A95660F771F881FDAF7EE
:10269000880F9695879597F9089597F99F6780E831
:1026A00070E060E008959FEF80EC089500240A94A4
:1026B0001616170618060906089500240A9412161D
:1026C0001306140605060895092E0394000C11F450
:1026D000882352F0BB0F40F4BF2B11F460FF04C0FD
:1026E0006F5F7F4F8F4F9F4F089557FD9058440F56
:1026F000551F59F05F3F71F04795880F97FB991F61
:1027000061F09F3F79F0879508951216130614061D
:10271000551FF2CF4695F1DF08C0161617061806AA
:10272000991FF1CF86957105610508940895E89485
:10273000BB2766277727CB0197F908950E94B1132D
:102740000C9464130E94561338F00E945D1320F01D
:10275000952311F00C944D130C94531311240C94E5
:1027600098130E94751370F3959FC1F3950F50E075
:10277000551F629FF001729FBB27F00DB11D639F33
:10278000AA27F00DB11DAA1F649F6627B00DA11DD9
:10279000661F829F2227B00DA11D621F739FB00D7F
:1027A000A11D621F839FA00D611D221F749F3327EF
:1027B000A00D611D231F849F600D211D822F762F88
:1027C0006A2F11249F5750409AF0F1F088234AF065
:1027D000EE0FFF1FBB1F661F771F881F91505040D1
:1027E000A9F79E3F510580F00C944D130C9498135B
:1027F0005F3FE4F3983ED4F3869577956795B79558
:10280000F795E7959F5FC1F7FE2B880F911D969571
:10281000879597F90895AA1BBB1B51E107C0AA1F12
:10282000BB1FA617B70710F0A61BB70B881F991F71
:102830005A95A9F780959095BC01CD010895A1E224
:102840001A2EAA1BBB1BFD010DC0AA1FBB1FEE1F2A
:10285000FF1FA217B307E407F50720F0A21BB30B75
:10286000E40BF50B661F771F881F991F1A9469F7F1
:1028700060957095809590959B01AC01BD01CF014D
:102880000895052E97FB1EF400940E94581457FDDE
:1028900007D00E941F1407FC03D04EF40C94581468
:1028A00050954095309521953F4F4F4F5F4F08957C
:1028B00090958095709561957F4F8F4F9F4F0895AC
:1028C000EE0FFF1F0590F491E02D09940F931F93D5
:1028D000CF93DF938230910510F482E090E0E09195
:1028E000CF02F091D00230E020E0B0E0A0E03097DD
:1028F00099F42115310509F44AC0281B390B2430FD
:102900003105D8F58A819B816115710589F1FB013B
:1029100093838283FE0111C0408151810281138122
:1029200048175907E0F04817590799F4109761F0D4
:1029300012960C93129713961C933296CF01DF9147
:10294000CF911F910F9108950093CF021093D00261
:10295000F4CF2115310551F04217530738F0A90182
:10296000DB019A01BD01DF01F801C1CFEF01F9CF11
:102970009093D0028093CF02CDCFFE01E20FF31FE0
:10298000819391932250310939832883D7CF2091A5
:10299000CD023091CE02232B41F4209102013091DF
:1029A00003013093CE022093CD022091000130919B
:1029B00001012115310541F42DB73EB740910401C5
:1029C00050910501241B350BE091CD02F091CE0210
:1029D000E217F307A0F42E1B3F0B2817390778F0F6
:1029E000AC014E5F5F4F2417350748F04E0F5F1F55
:1029F0005093CE024093CD02819391939FCFF0E00C
:102A0000E0E09CCFCF93DF930097E9F0FC01329791
:102A100013821282A091CF02B091D002ED0130E07A
:102A200020E01097A1F420813181820F931F209123
:102A3000CD023091CE022817390709F061C0F0931A
:102A4000CE02E093CD02DF91CF910895EA01CE1737
:102A5000DF07E8F54A815B819E0141155105B1F719
:102A6000E901FB83EA8349915991C40FD51FEC1703
:102A7000FD0761F4808191810296840F951FE90121
:102A800099838883828193819B838A83F0E0E0E04D
:102A900012968D919C9113970097B9F52D913C91C9
:102AA0001197CD010296820F931F2091CD02309194
:102AB000CE022817390739F6309751F51092D00217
:102AC0001092CF02B093CE02A093CD02BCCFD3839D
:102AD000C28340815181840F951FC817D90761F4C3
:102AE0004E5F5F4F88819981480F591F5183408302
:102AF0008A819B81938382832115310509F0B0CFB0
:102B0000F093D002E093CF029ECFFD01DC01C0CF55
:102B100013821282D7CFDC0101C06D934150504027
:102B2000E0F7089510E0CBECD0E004C0FE010E9475
:102B300060142196CC3CD107C9F7F894FFCF000070
:102B4000D102800000C18081000000FFFFFFFF0074
:102B5000E100000000000000000000E008170A8209
:102B600008C00854086E086008000000004A10966B
:0C2B7000107110761079108910601000B0
:1070000055C000006EC000006CC000006AC00000E7
:1070100068C0000066C0000064C0000062C00000DC
:1070200060C000005EC00000FCC400005AC0000048
:1070300058C0000056C0000054C0000052C00000FC
:1070400050C000005DC000004CC000004AC00000FD
:1070500048C0000046C0000044C0000042C000001C
:1070600040C000003EC000003CC000003AC000002C
:1070700038C0000036C0000034C0000032C000003C
:1070800030C000002EC000002CC000002AC000004C
:1070900028C0000026C0000024C0000022C000005C
:1070A00020C000001EC000001CC0000011241FBE34
:1070B000CFEFDAE0DEBFCDBF11E0A0E0B1E0E2E467
:1070C000FFE702C005900D92A43BB107D9F711E08C
:1070D000A4EBB1E001C01D92AD3CB107E1F74FD385
:1070E0002EC78ECFF89410926F001092810081E02D
:1070F00085BF15BE47985D9A289A0C9400000895A4
:107100001F920F920FB60F9211242F938F939F937C
:10711000EF93FF9310928500109284008091B40148
:107120009091B501009741F001979093B50180933C
:10713000B401892B09F45D9A8091B6019091B70151
:10714000009741F001979093B7018093B601892B86
:1071500009F4289A8091BA019091BB01019690930D
:10716000BB018093BA01E0E0F0E0859194918F5FDC
:107170009F4F49F08091B8019091B9010196909389
:10718000B9018093B801FF91EF919F918F912F9159
:107190000F900FBE0F901F90189584E08093E90028
:1071A0000DC08091E8008B778093E80003C08EB318
:1071B000882351F08091E80082FFF9CF8091E800A8
:1071C00085FFEFCF8091F1000895982F83E08093A1
:1071D000E9008091E80085FD0DC08091E8008E7780
:1071E0008093E80003C08EB3882369F08091E800A3
:1071F00080FFF9CF9093F1005D9884E690E0909342
:10720000B5018093B40108954F925F926F927F927F
:107210008F929F92AF92BF92CF92DF92EF92FF92A6
:107220000F931F93CF93DF9384E08093E9008091C5
:10723000E80082FF57C2289884E690E09093B70157
:107240008093B601AADF182F853481F486EA9EE088
:107250009093B9018093B80107B600FCFDCFF9996E
:10726000FECF81E180935700E89503C0843519F47F
:1072700094DF8DE00DC28C34E1F38035D1F3843797
:1072800021F484E4A2DF80E003C2813611F489E5B1
:10729000FFC18134B1F481DF182F7FDF90E0880FC8
:1072A000991FAA2797FDA095BA2F312F330F20E001
:1072B000442737FD4095542F822B932BA42BB52BBD
:1072C000B8C1803711F483E5E3C1833549F4C0E0E8
:1072D000D1E089917ADF21E0C730D207D1F7D9C157
:1072E000863521F481E371DF80E3D2C1833731F445
:1072F00087E86BDF85E969DF8EE1CAC18536B9F4BD
:10730000E0E0F0E093E085E090935700E89507B661
:1073100000FCFDCF80935700E89507B600FCFDCF39
:10732000E058FF4FA0E7E030FA0771F7A2CF8237AD
:1073300039F4E1E0F0E089E0809357008491A8C13E
:10734000863439F4E0E0F0E089E0809357008491DE
:107350009FC18E3439F4E3E0F0E089E08093570078
:10736000849196C1813539F4E2E0F0E089E08093C0
:10737000570084918DC1823631F489E526DF80E0A3
:1073800024DF80E885C1823419F0873609F0E5C032
:107390001092B9011092B80100DF082FFEDEF82E1E
:1073A000FCDE682E8554823008F071C1902F80E099
:1073B000CF2DD0E0C82BD92B10926F00173609F0D3
:1073C0004BC081E180935700E895DD24CC24C39421
:1073D0003FC0E090BD01F090BE010091BF0110914F
:1073E000C001B6E46B16D9F4ED2DF0E0EE29FF29CB
:1073F000E4918E2FEADEDD2081F082E090E0A0E0D3
:10740000B0E0E80EF91E0A1F1B1FE092BD01F092CA
:10741000BE010093BF011093C001DC2418C0D80145
:10742000C701B695A7959795879573D5CEDE82E06F
:1074300090E0A0E0B0E0E80EF91E0A1F1B1FE092EA
:10744000BD01F092BE010093BF011093C0012197CE
:10745000209709F0BECF7DC08090BD019090BE0105
:10746000A090BF01B090C00196E4691609F05DC01C
:1074700083E0F40180935700E89507B600FCFDCF48
:1074800054C0F6E46F1661F5772031F1E090BD014C
:10749000F090BE010091BF011091C0017EDED82E98
:1074A000CC24852D90E08C299D29F7010C01409278
:1074B0005700E895112482E090E0A0E0B0E0E80EEB
:1074C000F91E0A1F1B1FE092BD01F092BE0100933E
:1074D000BF011093C00102C060DE582E742423C087
:1074E000E090BD01F090BE010091BF011091C0017C
:1074F00016950795F794E79450DE682FC70111D5CC
:107500008091BD019091BE01A091BF01B091C001D9
:107510000296A11DB11D8093BD019093BE01A09361
:10752000BF01B093C001219704C05524772444249F
:107530004394209709F0A5CF96E4691641F485E0BD
:10754000F40180935700E89507B600FCFDCF8DE06D
:107550003CDE82E080936F009CC0833471F4009124
:10756000BD011091BE0119DE90E021E0F8010C018F
:1075700020935700E89511247CCE833619F5E090CE
:10758000BD01F090BE010091BF011091C00105DE68
:10759000F701E16090E021E00C0120935700E895AD
:1075A000112482E090E0A0E0B0E0E80EF91E0A1F8E
:1075B0001B1FE092BD01F092BE010093BF0110932A
:1075C000C00157CE8D3661F4E091BD01F091BE014E
:1075D00085E080935700E89507B600FCFDCF49CEC3
:1075E000823551F4E091BD01F091BE0105911491F5
:1075F000812FEBDD802F4CC0843421F5E090BD015C
:10760000F090BE010091BF011091C0011695079541
:10761000F794E794C2DD682FC70183D48091BD0140
:107620009091BE01A091BF01B091C0010296A11D31
:10763000B11D8093BD019093BE01A093BF01B09393
:10764000C00117CE843609F5E090BD01F090BE016F
:107650000091BF011091C001D801C701B695A7954F
:107660009795879556D4B1DD82E090E0A0E0B0E038
:10767000E80EF91E0A1F1B1FE092BD01F092BE0129
:107680000093BF011093C00104C08B3111F08FE350
:107690009CDD83E08093E9009091E8008091E80010
:1076A0008E778093E80095FF04C010C08EB38823C6
:1076B000C9F08091E80080FFF9CF8091E8008E77D3
:1076C0008093E80003C08EB3882361F08091E800C6
:1076D00080FFF9CF84E08093E9008091E8008B7708
:1076E0008093E800DF91CF911F910F91FF90EF9071
:1076F000DF90CF90BF90AF909F908F907F906F90D2
:107700005F904F9008959091C501892F8F778132B6
:1077100049F58091C6018032A1F0813219F5913A84
:1077200009F58091E800877F8093E8008CE091E084
:1077300067E070E025D28091E8008B778093E800C5
:107740000895913279F48091E800877F8093E80072
:107750008CE091E067E070E077D28091E8008E776E
:107760008093E800089582E061EC42E0D1D083E0AC
:1077700061E842E1CDD084E060E842E1C9C01F93F6
:10778000209100081092000844B714BE88E10FB69B
:10779000F89480936000109260000FBE80E8E0E0F3
:1077A000F0E00FB6F89480936100E09361000FBEA3
:1077B00031E035BF92E095BF3F9A209A559A809369
:1077C00061001092610047985D9A289A1092890092
:1077D0008AEF8093880090936F0083E0809381000C
:1077E000859194918F5F9F4F11F03093BC01942F3E
:1077F00041FF19C0809109012817A9F08093000862
:10780000789480911301882339F08091BA01909186
:10781000BB0188579140C8F3F8941092000881E0AA
:10782000809313010CC090FF04C08091BC01882399
:1078300051F493FF09C080910901281729F0809124
:10784000BC01882309F04EDCD4D078941092B901A1
:107850001092B8011EEF20C0D7DC49D38091B80147
:107860009091B901815A9F4010F0109213018091BC
:10787000C1019091C20101969093C2018093C10110
:10788000292F97FF03C0512F591B252F220F28178F
:1078900010F4479801C0479A809113018823E1F6BC
:1078A0008091E00081608093E0001CDC80E090E04B
:1078B0001F910895FA01923049F0933061F09130B0
:1078C000F9F484E191E022E130E01EC086E291E02B
:1078D0002EE330E019C0882329F484E691E024E007
:1078E00030E012C0813029F488E691E02CE230E0EB
:1078F0000BC0823029F486E991E02CE130E004C02D
:1079000080E090E020E030E091838083C901089519
:107910008093E9008091EB0081608093EB001092EE
:10792000ED006093EC004093ED008091EE00881F25
:107930008827881F08958091C50188238CF403C08F
:107940008EB38823B1F08091E80082FFF9CF809157
:10795000E8008B778093E80008958EB3882349F080
:107960008091E80080FFF9CF8091E8008E778093C6
:10797000E8000895EF92FF920F931F9345D04CD0EB
:1079800008ED10E0F80180818F7780838081806826
:10799000808380818F7D808319BC1EBA1092C301C1
:1079A00080EEE82EF12CF70180818B7F8083F80137
:1079B00080818160808380E060E042E0A9DFE1EEC9
:1079C000F0E080818E7F8083E2EEF0E08081816054
:1079D0008083808188608083F70180818E7F8083AF
:1079E000F8018081806180831F910F91FF90EF905B
:1079F0000895E7EDF0E08081816080838AE482BFB2
:107A000081E08093C401B6CFE8EDF0E080818E7F05
:107A100080831092E20008951092DA001092E10043
:107A200008951F920F920FB60F9211242F933F9338
:107A30004F935F936F937F938F939F93AF93BF9376
:107A4000EF93FF938091DA0080FF1AC08091D800F5
:107A500080FF16C08091DA008E7F8093DA008091DB
:107A6000D90080FF0AC019BC82E089BD09B400FEBC
:107A7000FDCF81E08EBB3AD203C019BC1EBA36D20C
:107A80008091E10080FF17C08091E20080FF13C069
:107A90008091E2008E7F8093E2008091E20080611D
:107AA0008093E2008091D80080628093D80019BC56
:107AB00085E08EBB1BD28091E10084FF2BC08091BA
:107AC000E20084FF27C019BC82E089BD09B400FE32
:107AD000FDCF8091D8008F7D8093D8008091E10008
:107AE0008F7E8093E1008091E2008F7E8093E200A0
:107AF0008091E20081608093E2008091C30188233D
:107B000031F48091E30087FD02C081E001C084E090
:107B10008EBBECD18091E10083FF21C08091E20017
:107B200083FF1DC08091E100877F8093E10082E0A8
:107B30008EBB1092C3018091E1008E7F8093E100A3
:107B40008091E2008E7F8093E2008091E20080616C
:107B50008093E20080E060E042E0DADEC7D1FF918E
:107B6000EF91BF91AF919F918F917F916F915F91B5
:107B70004F913F912F910F900FBE0F901F9018952E
:107B80009C014091CB015091CC014617570718F446
:107B9000F90190E044C06115710511F0AB01F8CF17
:107BA0008091E8008E778093E80040E050E0F0CFCD
:107BB0008EB3882309F444C0853009F443C0809112
:107BC000E80083FF02C081E008958091E80082FD13
:107BD00031C08091E80080FF22C08091F300909135
:107BE000F200782F60E0292F30E0262B372B07C0DA
:107BF00081918093F100415050402F5F3F4F4115DC
:107C0000510519F02830310598F390E028303105FE
:107C100009F491E08091E8008E778093E8004115A7
:107C2000510531F6992321F605C08EB3882341F022
:107C3000853041F08091E80082FFF7CF80E0089521
:107C400082E0089583E008959C016115710529F48F
:107C50008091E8008B778093E800F90126C08EB30D
:107C6000882391F1853091F18091E80083FF02C073
:107C700081E008958091E80082FFF1CF06C08091F5
:107C8000F10081936150704059F02091F300809190
:107C9000F200322F20E090E0822B932B892B79F792
:107CA0008091E8008B778093E80061157105B9F643
:107CB00005C08EB3882341F0853041F08091E80003
:107CC00080FFF7CF80E0089582E0089583E0089573
:107CD0000F931F93DF93CF9300D0CDB7DEB7E5ECC2
:107CE000F1E08091F100819381E0ED3CF807C9F764
:107CF0000ADD8091E80083FFE4C08091C501909186
:107D0000C601953009F46DC0963040F4913081F190
:107D1000913070F0933009F0D4C02AC0983009F443
:107D2000A3C0993009F4B2C0963009F0CAC07CC033
:107D3000803809F4C6C0823809F0C3C08091C901F7
:107D400087708093E9008091EB001092E900209108
:107D5000E800277F2093E80090E025E0969587953E
:107D60002A95E1F781708093F1001092F10087C0AD
:107D7000882319F0823009F0A4C08F71823009F095
:107D8000A0C08091C701882331F52091C9012770D7
:107D900009F497C02093E9008091EB0080FF1BC09D
:107DA000933021F48091EB00806213C08091EB004E
:107DB00080618093EB0081E090E002C0880F991F02
:107DC0002A95E2F78093EA001092EA008091EB0096
:107DD00088608093EB001092E9008091E800877F33
:107DE00051C0882309F06DC01091C7011F770FB7EC
:107DF000F8948091E800877F8093E8009CDD809173
:107E0000E80080FFFCCF8091E3008078812B809395
:107E1000E30080688093E300112311F482E001C045
:107E200083E08EBB0FBF4DC08058823008F049C040
:107E30008091C7019091C8016091C901AE014F5F67
:107E40005F4F38DDBC01009709F43BC08091E8002A
:107E5000877F8093E80089819A8192DE8091E80093
:107E60008B778093E8002DC0803859F58091E80029
:107E7000877F8093E8008091C3018093F100809117
:107E8000E8008E778093E80056DD1BC08823C9F494
:107E90009091C7019230A8F48091E800877F809389
:107EA000E8009093C30147DD8091C301882331F43A
:107EB0008091E30087FD02C081E001C084E08EBBB9
:107EC00052DC8091E80083FF0AC08091EB00806261
:107ED0008093EB008091E800877F8093E8000F900B
:107EE0000F90CF91DF911F910F91089508951F93E7
:107EF0008EB3882361F01091E9001092E90080911F
:107F0000E80083FF01C0E4DE17701093E9001F91C1
:107F10000895F999FECF92BD81BDF89A992780B551
:107F20000895262FF999FECF1FBA92BD81BD20BDBD
:107F30000FB6F894FA9AF99A0FBE01960895F8943C
:107F4000FFCF4341544552494E410077000800009D
:107F500000000000080112011001020000088D0E4F
:107F600000AB01000201000109023E000201008095
:107F7000320904000001020201000524001001047E
:107F80002402040524060001070582030800FF09F6
:107F9000040100020A0000000705040210000107A6
:107FA000058302100001040309042C034C0069003E
:107FB0006E006B0049007400200053006D006100EA
:107FC00072007400200037003600380038002000AE
:107FD000440075006F0000001C034D006500640044
:107FE00069006100540065006B0020004C006100D6
:067FF000620073000000B6
:00000001FF
